:100000000C9497030C94DE030C94DE030C94DE0333
:100010000C94DE030C94DE030C94DE030C94DE03DC
:100020000C94DE030C94DE030C94DB230C94AE24BE
:100030000C94EE1A0C94DE030C94DE030C94DE0395
:100040000C94DE030C94DE030C94DE030C94DE03AC
:100050000C94DE030C944F1B0C94DE030C94DE0313
:100060000C94DE030C94DE030C94DE030C94DE038C
:100070000C94DE030C94DE030C94DE030C94DE037C
:100080000C94DE030C94DE030C94DE030C94DE036C
:100090000C94DE030C94DE030C94DE030C94DE035C
:1000A0000C94DE030C94DE030C94DE0301E3012EBA
:1000B000022E02E30001E3012D022D02E30001E71D
:1000C00001E10130023002E102E70001E701E10154
:1000D0002F022F02E702E10001E70131023102E7BE
:1000E0000001E701E2010F020F02E202E70001E76F
:1000F00001E10119021902E102E70001E701E10152
:1001000004020402E102E70001E701E1011D021D12
:1001100002E102E70001E7011D021D02E70001E024
:10012000014E024E02E00001E0014B024B02E000F2
:1001300001E70130023002E70001E7012F022F0240
:10014000E70001E3011A021A02E30001E701E101FD
:1001500017021702E102E70001E701170217020088
:100160000001E201E3010F020F02E302E201E301F9
:1001700015021502E300E0000D3001000100083017
:10018000093001000100043005300630073001530A
:1001900001300230033001000100010001000100C4
:1001A00001000100010010301130123013300153F2
:1001B0000E300F300030010001000100010001008D
:1001C0000100010001000100010001000100010027
:1001D0000100010001000100010001000100010017
:1001E0000100010001000100010001000100010007
:1001F00001000100010001000100010001000100F7
:1002000001000100010001000100010001000100E6
:1002100001000100010001000100010001000100D6
:1002200001000100010001000100010001000100C6
:1002300001000100010001000100010001000100B6
:1002400001000100010001000100010001000100A6
:100250000100010001000100010001000100010096
:100260000100010001000100010001000100010086
:100270000100010001000100010001000100010076
:100280000100010001000100010001000100010066
:100290000100010001000100010001000100010056
:1002A0000100010001000100010001000100010046
:1002B0000100010001000100010001000100010036
:1002C0000100010001000100010001000100010026
:1002D0000100010001000100010001000100010016
:1002E0000100010001000100010001000100010006
:1002F00001000100010001000100010001000100F6
:1003000001000100010001000100010001000100E5
:1003100001000100010001000100010001000100D5
:1003200001000100010001000100010001000100C5
:1003300001000100010001000100010001000100B5
:1003400001000100010001000100010001000100A5
:100350000100010001000100010001000100010095
:100360000100010001000100010001000100010085
:10037000010001000100643214643214783C1E1E36
:10038000140A050000000001010102020304050532
:100390000607090A0B0C0E0F1112141517191B1D55
:1003A0001F212325282A2C2F313436393B3E414347
:1003B00046494C4F5255585A5D6164676A6D707377
:1003C00076797C7F8386898C8F9295989B9EA2A557
:1003D000A7AAADB0B3B6B9BCBEC1C4C6C9CBCED056
:1003E000D3D5D7DADCDEE0E2E4E6E8EAEBEDEEF0E6
:1003F000F1F3F4F5F6F8F9FAFAFBFCFDFDFEFEFE6A
:10040000FFFFFFFFFFFFFFFEFEFEFDFDFCFBFAFA14
:10041000F9F8F6F5F4F3F1F0EEEDEBEAE8E6E4E2F4
:10042000E0DEDCDAD7D5D3D0CECBC9C6C4C1BEBCE2
:10043000B9B6B3B0ADAAA7A5A29E9B9895928F8C92
:10044000898683807C797673706D6A6764615D5A92
:100450005855524F4C494643413E3B393634312F73
:100460002C2A282523211F1D1B1917151412110FC3
:100470000E0C0B0A0907060505040302020101011F
:100480000000000000000000010101010101010164
:100490000102020202020202020203030303030337
:1004A0000303040404040404050505050506060603
:1004B000060607070707080808080909090A0A0ABB
:1004C0000A0B0B0B0C0C0C0D0D0D0E0E0F0F0F105D
:1004D00010111111121213131414151516161717E3
:1004E000181819191A1A1B1C1C1D1D1E1F1F20204D
:1004F0002122222324252526272728292A2B2B2C95
:100500002D2E2F2F30313233343536363738393AB5
:100510003B3C3D3E3F4041424344464748494A4BAD
:100520004C4D4F50515253555657585A5B5C5E5F75
:10053000606263646667696A6C6D6E70717374760D
:1005400078797B7C7E8081838486888A8B8D8F916D
:10055000929496989A9B9D9FA1A3A5A7A9ABADAF96
:10056000B1B3B5B7B9BBBDBFC1C4C6C8CACCCFD182
:10057000D3D6D8DADCDFE1E4E6E8EBEDF0F2F5F72C
:10058000FAFCFF12036B006500790062006F0061E6
:1005900000720064000000160371006D006B0062C1
:1005A00000750069006C00640065007200000004C2
:1005B00003090409026D00040100A0FA0904000007
:1005C000010301010009211101000122400007057A
:1005D000810308000A090401000103010200092146
:1005E00011010001224D000705820308000A0904D9
:1005F0000200010300000009211101000122360060
:100600000705830308000A09040300010300000032
:10061000092111010001223900070584032000018E
:100620001201100100000008EDFE606001000102EF
:10063000000105010906A101050719E029E71500D8
:1006400025019508750181020508190129059505FF
:10065000750191029501750391010507190029F7AC
:100660001500250195F875018102C005010980A1D9
:100670000185021601002603001A81002A830075F5
:100680001095018100C0050C0901A1018503160127
:1006900000269C021A01002A9C0275109501810017
:1006A000C005010902A1010901A1000509190129DB
:1006B00005150025019505750181029501750381D8
:1006C000010501093009311581257F9502750881E1
:1006D0000609381581257F950175088106050C0AE4
:1006E00038021581257F950175088106C0C0050176
:1006F0000906A101050719E029E71500250195085C
:100700007501810295017508810105081901290506
:100710009505750191029501750391010507190071
:1007200029FF150026FF00950675088100C01124D9
:100730001FBECFEFDAE0DEBFCDBF04B603FE27C099
:1007400080912A0290912B02A0912C02B0912D024F
:100750008730904BA740B04BD1F410922A021092F0
:100760002B0210922C0210922D0214BE84B7877FA8
:1007700084BF0FB6F894A89580916000886180933B
:100780006000109260000FBEE0E0F8E3099511E010
:10079000A0E0B1E0E4E9F0E502C005900D92A033DD
:1007A000B107D9F722E0A0E3B1E001C01D92AA325F
:1007B000B207E1F70E942F210C94FF270C94000050
:1007C000DC01643108F08DC0E62FF0E0EF5FF74DFB
:1007D0000C94B12712968C91882309F482C081E68B
:1007E00091E0089512968C91882309F47AC088E5E7
:1007F00091E0089512968C91882309F472C08BE4DD
:1008000091E0089512968C91882309F46AC082E4DD
:1008100091E0089512968C91882309F462C089E3CF
:1008200091E0089512968C91882309F45AC080E3D0
:1008300091E0089512968C91882309F452C087E2C2
:1008400091E0089512968C91882309F44AC08EE1B4
:1008500091E0089512968C91882309F442C085E1B5
:1008600091E0089512968C918823D9F188E091E067
:10087000089512968C918823A1F18BEF90E0089552
:1008800012968C91882369F18EEE90E0089512966D
:100890008C91882331F181EE90E0089512968C912D
:1008A0008823F9F088ED90E0089512968C918823C2
:1008B000C1F08BEC90E0089512968C91882389F01A
:1008C0008EEB90E0089512968C91882351F085EB81
:1008D00090E0089512968C91882319F08CEA90E0AC
:1008E000089590E080E008950895089581E00895C6
:1008F000089581E008950C9476040E943B132FEF35
:1009000084E39CE0215080409040E1F700C000006B
:100910000C94721BEF92FF920F931F93CF93DF9370
:100920007C01DC010D911C91119780916F01811167
:1009300043C012968C918823D1F1C8010E94BE1841
:10094000C82F682FC8010E946918B8018C2F0E9417
:10095000F505EC01B7010E947B04882309F468C007
:10096000B701CE010E94FD07882309F461C0CE3390
:10097000B0E7DB0770F4C433E0E7DE0710F5C13001
:10098000F0E7DF0709F45CC050F5C115D04709F462
:100990004AC081E08093320180933301C701DF9127
:1009A000CF911F910F91FF90EF900C947904C801A3
:1009B0000E949618C82FC9CFC8010E94BE18B8015E
:1009C000C6CFFE01E553F047D70112968C91E9306E
:1009D000F10508F040C0EB5EF74D0C94B127CE0155
:1009E000825090474397A8F6F70182818823B1F29D
:1009F0000E94801A811102C00E945F1A0E949D1AF3
:100A000090E090931C0280931B02FE01E350F0479C
:100A100080911B028160E231F10508F047C0E25E7F
:100A2000F74D0C94B127F701828181110E947D045A
:100A300080E0DF91CF911F910F91FF90EF9008958B
:100A4000D70112968C91882399F38091DF01816000
:100A50008093DF01EDCF882359F30E94380CE8CF53
:100A6000882331F30E942E0CE3CF882309F30E94E0
:100A70000B0BDECF8823E1F20E94230BD9CF882312
:100A8000B9F20E94420BD4CF882391F20E945A0BF4
:100A9000CFCF882369F20E94720BCACF882341F21C
:100AA0000E948A0BC5CF80911B02826080931B023B
:100AB00080911B020E94A11A0E943B13B9CF809122
:100AC0001B028460F3CF80911B028860EFCF80917E
:100AD0001B028061EBCF80911B028062E7CF809187
:100AE0001B028064E3CF80911B028068DFCF80917E
:100AF0001B028C60DBCF80911B028E7FD7CF809151
:100B00001B028D7FD3CF80911B028B7FCFCF809133
:100B10001B02877FCBCF80911B028F7EC7CF809136
:100B20001B028F7DC3CF80911B028F7BBFCF809133
:100B30001B028F77BBCF80911B02837FB7CF909131
:100B40001B02892F97FB87F98058B0CF882361F06B
:100B5000109232010E941E1B90933101809330014C
:100B600082E00E94A01064CF8091320181110FC0F9
:100B700080913001909131010E942A1B883C91059F
:100B800030F486E20E94750F86E20E94511082E0E6
:100B90000E94A7104DCF882351F0109233010E947C
:100BA0001E1B909331018093300180E2DACF809157
:100BB000330181110FC080913001909131010E9469
:100BC0002A1B883C910530F487E20E94750F87E26A
:100BD0000E94511080E2DCCF0C944C080C944E081B
:100BE0000C9478040C94F005089594E0899FF0012A
:100BF0001124E70FF11DEE0FFF1FEE0FFF1FE60F91
:100C0000F11DEE0FFF1FEA58FE4F85919491089554
:100C1000FC01EE0FFF1FEA58FC4F85919491089557
:100C20000E94F5050E9481079C01811540E494070C
:100C300008F097C0211580E3380708F0FAC0203E7D
:100C4000310508F074C0203C310508F0E5C0283AB1
:100C5000310588F4253A310508F0E2C0213031052C
:100C600009F477C0C9010497813A910508F471C06D
:100C700030E020E06EC0C901885A91094597C0F75D
:100C8000283A310509F4FEC0293A310509F4FDC0BE
:100C90002A3A310509F4FCC02B3A310509F4FBC0AE
:100CA0002C3A310509F4FAC02B3B310509F4F9C09F
:100CB0002C3B310509F4F8C02D3A310509F4F7C091
:100CC000203B310509F4F6C02E3A310509F4F5C090
:100CD0002F3A310509F4F4C0213B310509F4F3C082
:100CE000223B310509F4F2C0233B310509F4F1C080
:100CF000243B310509F4F0C0253B310509F4EFC070
:100D0000263B310509F4EEC0273B310509F4EDC05F
:100D1000283B310509F4ECC0293B310509F4EBC04F
:100D20002A3B310509F4EAC020E034E412C0211561
:100D300090E2390780F42F3F310509F050F4283E46
:100D4000310538F0C901805F91093065409708F09E
:100D50008FCFC9010895C9019F700E9408069C01A8
:100D6000F8CF8115944508F041C0211583E5380777
:100D700008F06AC0211592E5390738F5211541E5DB
:100D8000340708F05CC0211580E5380708F454C02A
:100D9000C90134E0969587953A95E1F78370422F23
:100DA00046954695437090E2499FA0011124582B27
:100DB000822F837021E030E002C0220F331F8A951A
:100DC000E2F7242B352B3C68C4CFC90183709927E7
:100DD00041E050E002C0440F551F8A95E2F7269586
:100DE000269580E2289F90011124EBCF211596E5EE
:100DF000390748F4922F882721153545C8F59C01FD
:100E0000246F306AA6CFC90190563F70811590417A
:100E100008F02ECF30629DCFC901805C91099DCF33
:100E2000253A310549F1263A310549F522E830E401
:100E300090CF3327306C8DCF3F70306A8ACF322FFE
:100E40002227216F306A85CFC9018370992741E03D
:100E500050E002C0440F551F8A95E2F7269526956B
:100E600080E2289F90011124242B352B3A6871CF02
:100E700088279F719C01CECF21E830E46ACF23E818
:100E800030E467CF22EE34E464CF29EE34E461CF5E
:100E90002AEE34E45ECF25EB34E45BCF26EB34E47A
:100EA00058CF23EB34E455CF24EB34E452CF27EB77
:100EB00034E44FCF2CEC34E44CCF2DEC34E449CF68
:100EC00023E835E446CF2AE835E443CF22E935E488
:100ED00040CF24E935E43DCF21E236E43ACF23E2A6
:100EE00036E437CF24E236E434CF25E236E431CF9E
:100EF00026E236E42ECF27E236E42BCF2AE236E490
:100F000028CF803E910581F1C8F48133910509F421
:100F100062C048F48932910509F456C08A329105BD
:100F200009F460C0089589339105B9F082389105BC
:100F3000A1F08533910509F440C00895863E9105DE
:100F400061F138F4823E9105B1F0833E9105E1F004
:100F50000895873E910551F1089520911B02237059
:100F6000D9F080EE90E0089520911B0220FF14C07C
:100F700089E390E0089520911B0222FF0DC024FD1B
:100F800009C083EE90E0089520911B0222FD31C03C
:100F900024FF02C090E080E0089520911B0223FF0F
:100FA000FBCF24FDF7CF87EE90E0089520911B0240
:100FB00023FFEECF86EE90E0089520911B0225FFDF
:100FC000EBCF89E290E0089520911B0225FFE4CF4A
:100FD00085E390E0089520911B0226FFDDCF8AE291
:100FE00090E0089520911B0226FFD6CF81E390E088
:100FF000089582EE90E0089508950F931F93CF9384
:101000008C01FB018281811106C0C1E08C2FCF9140
:101010001F910F910895C0914101C11125C0053163
:10102000104799F70E94FC0781E0809341010E94DC
:101030001E1B9093400180933F0110923401109247
:10104000360110923501109238011092370110923A
:101050003A011092390110923C0110923B0110921A
:101060003E0110923D01D2CF80913F01909140010D
:101070000E942A1B883C910540F680913401E82F9C
:10108000F0E0EE0FFF1FEB5CFE4F118300838F5FDC
:1010900080933401C0E0BACF0C9474040C947504AE
:1010A000CF93DF9385B7806885BF85B7806885BF9C
:1010B000A8E1B1E04CE151E0C1E0D0E08D91E82F32
:1010C000E295EF70F0E061A18F709E0101C0220FE8
:1010D0008A95EAF7922F9095962391A382A1822B6D
:1010E00082A34A175B0751F7A4E1B1E048E151E060
:1010F000C1E0D0E08D91E82FE295EF70F0E061A1C2
:101100008F709E0101C0220F8A95EAF7922F909569
:10111000962391A382A1822B82A34A175B0751F7E2
:101120001092460110924201109247011092430121
:101130001092480110924401109249011092450109
:10114000DF91CF910C94EC056F927F928F929F92DA
:10115000AF92BF92CF92DF92EF92FF920F931F93C5
:10116000CF93DF9332E4632E31E0732E48E1E42E17
:1011700041E0F42E01E010E0DD24D394E301C990B6
:101180003E01DE011E92F70181917F01E82FE29579
:10119000EF70F0E091A18F70A80101C0440F8A9513
:1011A000EAF7892F842B81A382A1842E8094882141
:1011B00082A380EA8A95F1F764E171E090E080E033
:1011C000EB013991BE01A32EA2942FE0A222B12CF3
:1011D000E50128A19C903F70580101C0AA0C3A95E6
:1011E000EAF7A22220E031F4202F082E01C0220FBE
:1011F0000A94EAF729292C9301968430910501F786
:1012000081A1882181A382A1482B42A38C91C81679
:1012100041F0D0924A010E941E1B90934C01809392
:101220004B01D6E46D16D1E07D0609F0A7CF809181
:101230004A018823D1F080914B0190914C010E948A
:101240002A1B069790F0809142018093460180917D
:10125000430180934701809144018093480180912C
:1012600045018093490110924A010E94EE0581E0F8
:10127000DF91CF911F910F91FF90EF90DF90CF9072
:10128000BF90AF909F908F907F906F900895E82FC0
:10129000F0E0EA5BFE4F8081089508959C01CB0148
:1012A00065B1542F5095562365B1462B6FB7F8940E
:1012B000820F931F2817390711F46FBF0895F901A2
:1012C00071919F01E8E045B9000000C077FF55B972
:1012D000770F000000C000C000C055B900C0EA95FB
:1012E00091F7E8CFFC0194B1942B94B99B01220FA4
:1012F000331F620F731FCF010E944E0987EC90E0ED
:101300000197F1F700C00000089542E00C947209C3
:10131000AF92BF92CF92DF92EF92FF920F931F9303
:10132000CF93DF937C01E901842F242F662309F4F6
:101330003FC0C42ED12C8FEF90E0861B9109489FAF
:101340008001499F100D1124212F812F9927C81A40
:10135000D90A9CE3A92EB12CC701B5010E948927A7
:10136000FB01BC01C69EC001C79E900DD69E900D8C
:101370001124B5010E948927E330F10509F443C027
:1013800080EFE816F10468F4E130F10591F132974D
:10139000A1F18CE3E816F10440F180E020E040E0A8
:1013A00007C0E430F10599F1842F861B3597A9F722
:1013B000E42FF0E0ED57FB4F4491E22FF0E0ED57C2
:1013C000FB4F9491E82FF0E0ED57FB4FE4914983F8
:1013D0009883EA83DF91CF911F910F91FF90EF9057
:1013E000DF90CF90BF90AF900895812F262F210FCF
:1013F000DFCF812F242F461BDBCF862F810FE42FD9
:10140000412F2E2FD5CFE42FE61B842FF9CF842F29
:10141000462F410FCDCF88E090E00C94BF27AB0161
:10142000BC0188E090E00C94DD27CF93DF9300D0DF
:1014300000D0CDB7DEB7ECE0F2E083E0808311822C
:101440008FEF8283838380910C0290910D02A09193
:101450000E02B0910F0289839A83AB83BC83BC01D7
:10146000CD010F900F900F900F90DF91CF910C94C2
:101470000F0A80910C0280FF06C061E070E084E1F9
:1014800092E00C94850910921502109214021092A9
:101490001602F3CFE4E1F2E08183608342830C948F
:1014A000390AEF92FF920F931F93CF93DF9300D0EF
:1014B0000F92CDB7DEB7182FE92EF62E042F8091AC
:1014C0000C0290910D02A0910E02B0910F02809338
:1014D000100290931102A0931202B0931302809114
:1014E0000C0280FF1FC09E012F5F3F4F812F9E2D5A
:1014F0000E9488098091100210FB87F980931002E6
:101500001695809111028078182BE0FA17F9109344
:101510001102F0921202009313024B8169818A81B9
:101520000E944A0A0F900F900F90DF91CF911F9168
:101530000F91FF90EF9008950F931F93CF93DF9338
:1015400000D000D00F92CDB7DEB789839D83062FE0
:10155000142F80910C0280FF54C0982F9E779230F8
:1015600091F589819D810E94510A80910C02B98177
:10157000B0FB87F980930C02B69580910D028078BC
:10158000B82B8D8180FBB7F9B0930D0200930E024A
:1015900010930F0280910C0290910D02A0910E0207
:1015A000B0910F0289839A83AB83BC83BC01CD01C8
:1015B0000F900F900F900F900F90DF91CF911F9190
:1015C0000F910C940F0A982F96959F732EE3290F75
:1015D0002F73243018F410910F02C7CF965C9F73BD
:1015E000993018F6881F8827881F90910D029D83D7
:1015F000990F982B9983AD81A7FBAA27A0F9AD83FA
:10160000B4CF0F900F900F900F900F90DF91CF916C
:101610001F910F910895ECE0F2E02081221F222714
:10162000221F30910D02432F440F842F822B37FB52
:10163000992790F9089668E671E00E949D274381FA
:1016400062810C949C0A20910C02221F2227221FE7
:1016500030910D02432F440F842F822B37FB9927A3
:1016600090F98830910540F4805A9E4F40910F02C6
:1016700060910E020C949C0A089768E671E00E9443
:101680009D27F4CF60910E02683F90F4685F8091CF
:101690000C02881F8827881F90910D02292F220F86
:1016A00097FB992790F940910F02822B0C949C0A8A
:1016B0006FEFEDCF60910E02683090F0685080912E
:1016C0000C02881F8827881F90910D02292F220F56
:1016D00097FB992790F940910F02822B0C949C0A5A
:1016E00060E0EDCF40910F02483F90F4485F809159
:1016F0000C02881F8827881F90910D02292F220F26
:1017000097FB992790F960910E02822B0C949C0A0A
:101710004FEFEDCF40910F02483090F0485080914C
:101720000C02881F8827881F90910D02292F220FF5
:1017300097FB992790F960910E02822B0C949C0ADA
:1017400040E0EDCFCF93DF9300D000D0CDB7DEB730
:1017500090910C0290FF47C09178811132C0926045
:1017600090930C0280910C0290910D02A0910E02B8
:10177000B0910F0289839A83AB83BC83BC01CD01F6
:101780000E940F0A80910C02982F9E77923009F5E3
:1017900010926201881F8827881F90910D02292FBF
:1017A000220F97FB992790F940910F0260910E024A
:1017B000822B0F900F900F900F90DF91CF910C9490
:1017C0009C0A893110F09063CBCF8F73880F982BD0
:1017D000C7CF982F9695925C9F739631D8F691E07B
:1017E00090936201D7CF0F900F900F900F90DF91E1
:1017F000CF9108958091DF0181608093DF0181E0C6
:10180000809363010E94801A811104C00E945F1AB4
:101810000E94150A0E940B0A60930C0270930D023D
:1018200080930E0290930F026E7761F40E94150A66
:101830000E940B0A60930C0270930D0280930E02BB
:1018400090930F0281E08093620180910C0280FFEF
:1018500004C086958F730C94A20B089580910C029E
:1018600086958F738F5F893108F081E00C94A20B0D
:10187000CF93DF9300D000D0CDB7DEB790910C02AC
:10188000892F8E7F90FF816080930C0280910C02E3
:1018900090910D02A0910E02B0910F0289839A835C
:1018A000AB83BC83BC01CD010E940F0A80910C0266
:1018B00080FF0AC086958F730F900F900F900F9046
:1018C000DF91CF910C94A20B109262019FEFA0E7E1
:1018D000B2E09150A040B040E1F700C000000F908E
:1018E0000F900F900F90DF91CF910C94390ACF9306
:1018F000C82F80916001909161010E942A1BEC2FFA
:10190000F0E0E158FC4FE491E817190609F010F5F2
:101910000E941E1B9093610180936001E0915F0122
:10192000F0E0ED57FC4F449180910C02881F88270E
:10193000881F90910D02292F220F97FB992790F96C
:1019400060910E02822B0E94510A80915F018F5F8D
:1019500080935F01CF910895CF93C82F80915D014F
:1019600090915E010E942A1BEC2FF0E0E458FC4F9E
:10197000E491E817190609F0E8F40E941E1B909301
:101980005E0180935D0140910F0260910E02809193
:101990005B0190915C010E94510A80915B019091E2
:1019A0005C01019668E671E00E94892790935C01D2
:1019B00080935B01CF9108950F931F93CF93C82F0E
:1019C0008091590190915A010E942A1BEC2FE695B3
:1019D000F0E0E458FC4FE491E817190609F038F5F7
:1019E0000E941E1B90935A018093590180915701C8
:1019F0009091580108E611E0B8010E94892724E17E
:101A000032E040910F0260910E020E9488090E940C
:101A1000390A8091570190915801C0FF0CC001967E
:101A2000B8010E9489279093580180935701CF9164
:101A30001F910F9108950197F6CFEF92FF920F93A8
:101A40001F93CF93DF93C82F1FEF80FF11E080918A
:101A50005501909156010E942A1BC695EC2FF0E08B
:101A6000E758FC4FE491E817190611F008F045C05B
:101A70000E941E1B909356018093550110921502EF
:101A80001092140210921602C7E0D0E000E087E046
:101A9000E82EF12C80915401800F87FD8F5F81111A
:101AA0001EC020910F022C9FC0012D9F900D11246C
:101AB000B7010E949D27462F80910C02881F88271E
:101AC000881F90910D02592F550F97FB992790F978
:101AD00024E132E060910E02852B0E948809010FFB
:101AE0002197C1F60E94390A113071F48091540196
:101AF000882319F0815080935401DF91CF911F9179
:101B00000F91FF90EF90089510925401F6CF1F931C
:101B1000CF93DF9300D00F92CDB7DEB7182F80910F
:101B20005201909153010E942A1BE12FF0E0EA58E4
:101B3000FC4FE491E817190609F0D8F50E941E1B26
:101B400090935301809352011A8219821B8217E0ED
:101B500080910C02881F8827881F90910D02592FB1
:101B6000550F97FB992790F99E012F5F3F4F4091AA
:101B70000F0260910E02852B0E948809115041F7D7
:101B80008A81809315028981809314028B818093CE
:101B900016020E94390A9091000180915101913002
:101BA00099F48A3F6CF489EF809351018FEF809311
:101BB00000010F900F900F90DF91CF911F9108952A
:101BC000815080935101F5CF88302CF087E08093CD
:101BD000510181E0ECCF8F5FF4CF80914F01909164
:101BE00050010E942A1B883E934010F10E941E1B48
:101BF0009093500180934F0180914D0190914E013F
:101C000001968170992790934E0180934D0124E1B4
:101C100032E040910F0260910E0250E5FC015E9FA0
:101C2000C0015F9F900D11240E9488090C94390A0D
:101C3000089580916201882371F180910C0286954C
:101C40008F739EE3980F9F73943018F482500C9416
:101C5000770C9AE3980F9F73933018F486500C9486
:101C6000AC0C97E3980F9F73963018F489500C943E
:101C7000DC0C91E3980F9F73963018F48F500C94FE
:101C80001D0D9BE2980F9F73933018F485510C94AF
:101C9000870D0C94ED0D0895909369018093680170
:101CA0000895E0916801F0916901309721F0019069
:101CB000F081E02D099480E00895E0916801F091B1
:101CC0006901309721F00280F381E02D0994089595
:101CD000E0916801F0916901309721F00480F5816D
:101CE000E02D09940895209166013091670128172D
:101CF000390771F09093670180936601E091680164
:101D0000F0916901309721F00680F781E02D099468
:101D1000089520916401309165012817390771F009
:101D20009093650180936401E0916801F0916901ED
:101D3000309721F00084F185E02D099408950895ED
:101D40000C949F0E0E94151B0E9450080E94D71BE6
:101D50000C94FA0BBF92CF92DF92EF92FF920F9307
:101D60001F93CF93DF9300D000D00F92CDB7DEB793
:101D70000E94A4088BE6C82E81E0D82E10E000E077
:101D8000E02E802F0E944709B82EF601F1906F01D6
:101D9000F81609F45BC08091DF0181FD0E944D09B6
:101DA00030E020E0FB244F2D50E0922FBA01022EAC
:101DB00002C0759567950A94E2F760FF41C02983D8
:101DC000EA8221E030E0790102C0EE0CFF1C9A9516
:101DD000E2F72B2D30E02E213F2181E0232B09F467
:101DE00080E08B830E941E1B8160782F9D838C83F3
:101DF00049815A816B818D810E944C0FF801E55910
:101E0000FE4F80818E2580830E94841E0E94510E89
:101E100090916A01891789F10E94510E80936A019D
:101E20000F900F900F900F900F90DF91CF911F9117
:101E30000F91FF90EF90DF90CF90BF900C94F20540
:101E40002F5F3F4F2430310509F0AFCF0F5F1F4F99
:101E50000430110509F094CF8FEF89838A831B82A8
:101E60000E941E1B8160782F9D838C8349815A813B
:101E70006B818D810E944C0FC7CF0F900F900F90F8
:101E80000F900F90DF91CF911F910F91FF90EF90E6
:101E9000DF90CF90BF900895CF93DF93CDB7DEB79B
:101EA0002B970FB6F894DEBF0FBECDBF4F83588778
:101EB00069877A878B871E8285E0FE013796DE016F
:101EC000119601900D928A95E1F749815A816B81B3
:101ED0007C818D819E812B960FB6F894DEBF0FBE5C
:101EE000CDBFDF91CF910C94C315882309F4D8C0DE
:101EF000823871F40E94510E81FDD2C089E30E94A4
:101F000066190E94301A89E30E94A3190C94301AB2
:101F1000833859F40E94510E80FDC2C083E50E94AF
:101F200066190E94301A83E5EFCF843859F40E9475
:101F3000510E82FDB5C087E40E9466190E94301AD6
:101F400087E4E2CF9CEF980F913A18F40E9466194B
:101F5000DDCF90E2980F983050F4877091E001C087
:101F6000990F8A95EAF7892F0E94E719CFCF9BE551
:101F7000980F933070F4853A31F0863A39F083E85F
:101F800090E00C94730E81E890E0FBCF82E890E043
:101F9000F8CF98E5980F953108F082C0883A09F497
:101FA00040C0893A09F440C08A3A09F440C08B3AEB
:101FB00009F440C08C3A09F440C08B3B09F440C09E
:101FC0008C3B09F440C08D3A09F440C0803B09F4D1
:101FD00040C08E3A09F440C08F3A09F440C0813BBA
:101FE00009F440C0823B09F440C0833B09F440C07F
:101FF000843B09F440C0853B09F440C0863B09F4AA
:1020000040C0873B09F440C0883B09F440C0893B8D
:1020100009F440C08A3B09F440C090E080E00C9491
:10202000890E82EE90E0FBCF89EE90E0F8CF8AEE49
:1020300090E0F5CF85EB90E0F2CF86EB90E0EFCF2C
:1020400083EB90E0ECCF84EB90E0E9CF87EB90E07E
:10205000E6CF8CEC90E0E3CF8DEC90E0E0CF83E82E
:1020600091E0DDCF8AE891E0DACF82E991E0D7CF45
:1020700084E991E0D4CF81E292E0D1CF83E292E093
:10208000CECF84E292E0CBCF85E292E0C8CF86E269
:1020900092E0C5CF87E292E0C2CF8AE292E0BFCF62
:1020A0000895882309F44BC0823871F40E94510EC0
:1020B00081FF45C089E30E9466190E94301A89E3B6
:1020C0000E94A3190C94301A833859F40E94510EBF
:1020D00080FF35C083E50E9466190E94301A83E5AF
:1020E000EFCF843859F40E94510E82FF28C087E454
:1020F0000E9466190E94301A87E4E2CF9CEF980F85
:10210000913AF0F290E2980F983050F4877091E095
:1021100001C0990F8A95EAF7892F0E94ED19D2CF55
:102120009BE5980F933020F490E080E00C94730EC0
:10213000885A853120F490E080E00C94890E08954F
:10214000882321F00E94E7190C94301A08958823FF
:1021500021F00E94ED190C94301A08958F929F92ED
:10216000AF92BF92DF92EF92FF920F931F93CF93A4
:10217000DF9300D000D00F92CDB7DEB77C016D8326
:102180007983FC01058102950F70128111110E9463
:10219000061A0E945F19D82E882371F01123A1F02E
:1021A0008D81805E883080F082E00E9449190E9413
:1021B0005F1991E0D82ED926E981E295EF70F0E021
:1021C000E05DF74D0C94B127D12CF6CF09810F704B
:1021D000F981F07F11F00295007F1123B1F0002307
:1021E00061F08D81805E883018F02D81211109C049
:1021F000802F0E94E7190E94301A8D810E94750F6E
:1022000015C0802F0E94F819F6CF8D810E945110C1
:10221000002361F08D81805E883018F03D8131119E
:1022200029C0802F0E94ED190E94301ADD2009F488
:10223000D3C10E943C1980FDCFC1F70112820E94D8
:1022400036190E948117C7010E94FD120E9436199B
:102250000F900F900F900F900F90DF91CF911F91E3
:102260000F91FF90EF90DF90BF90AF909F908F9075
:102270000C94A317802F0E94FE19D6CF49814F706E
:10228000B42E5981507F503219F0B29480EFB822A9
:102290008D81882369F0813029F1112369F10023B0
:1022A00059F0F701858180FFA8CF8F70858304C026
:1022B000112361F0011104C08B2D0E94A010B6CF34
:1022C0008B2D0130D1F70E941A1AB0CF011106C030
:1022D0000E941D1A8B2D0E94A710A8CF013009F46F
:1022E000A5CFF6CF112321F0063008F09FCFE4CF21
:1022F000053008F09BCFEECF002361F38D810E9463
:10230000511094CF898186958695837069F08130CC
:1023100009F08CCF8D8199819370111102C090E0EA
:1023200080E00E94890E82CF8D8199819370111176
:1023300002C090E080E00E94730E78CF8D8111235F
:1023400029F00E94921D0E94791E70CF0E94FA1DF2
:10235000FACF8981837009F05FC0111167CF2D8199
:10236000229526952770220F220F8D818F7090E085
:10237000B0E0A0E04C015D01022E04C0880C991C65
:10238000AA1CBB1C0A94D2F7FD8160E070E0CB016F
:10239000F4FF0FC06FE070E080E090E004C0660FD3
:1023A000771F881F991F2A95D2F7609570958095A1
:1023B000909529812695269523702D832230B1F0A2
:1023C000233019F19B01AC01282939294A295B29BD
:1023D00029833A834B835C833D8169817A818B8138
:1023E0009C813130B1F00E940E1720CF9B01AC01CF
:1023F000282939294A295B2929833A834B835C831D
:10240000CA01B9010E94381711CF0E940E17C501E9
:10241000B4010E94E4160ACF8695112311F0898138
:102420008170882309F402CF2D812295269527708B
:10243000220F220F8D818F7090E0B0E0A0E04C0160
:102440005D01022E04C0880C991CAA1CBB1C0A94B6
:10245000D2F73D8160E070E0CB0134FF0FC06FE048
:1024600070E080E090E004C0660F771F881F991F1E
:102470002A95D2F7609570958095909549814695FB
:10248000469543704D834230B1F0433019F19B01C2
:10249000AC01282939294A295B2929833A834B83AE
:1024A0005C833D8169817A818B819C813130B1F07F
:1024B0000E941418BBCE9B01AC01282939294A2956
:1024C0005B2929833A834B835C83CA01B9010E944B
:1024D0003E18ACCE0E941418C501B4010E94EA1740
:1024E000A5CE3D81323F09F447C080F4303F79F1F9
:1024F000313FD9F1832F805E8031D0F0112309F470
:1025000056C001117ACE89818F7133C04D81433F0E
:10251000D1F1443F99F7112309F43FC089818F71AC
:1025200089830E94811763E089810E9440197ECED1
:102530005D815F705D8389818F71112321F00E941D
:1025400081178D81BACE0E94A3178D81C4CE11232D
:1025500041F0053008F06ACE89818F710E94C8175A
:1025600065CE063008F062CEF7CF89818F711123D6
:1025700039F00E9481175ACE89818F711123C9F3D6
:102580000E94A31753CE112329F089818F710E94D5
:102590006C174CCE0E94621749CE81E00E94491907
:1025A000023008F443CE82E00E9449193FCE011167
:1025B000A5CE89818F71E4CF49814F706D81C701AC
:1025C0000E94E0030E945D1631CE49814F706D81FB
:1025D000C7010E94F4052ACE0F900F900F900F9024
:1025E0000F90DF91CF911F910F91FF90EF90DF90AF
:1025F000BF90AF909F908F9008950F931F93CF93AC
:10260000DF93EC018B819C81892B29F08881998152
:1026100089238F3F29F4DF91CF911F910F91089566
:10262000CE010E948A048823B1F3688179818A816E
:102630000E940C198C010E9468180E94D916B801DA
:10264000CE01DF91CF911F910F910C94AE100E949B
:10265000061A0E94171A0E94D9190E94301A0E9465
:102660006A1F0E94791E90E080E00E94730E90E045
:1026700080E00C94890E0E94F5190C9427130E9497
:102680000019282F892F82958F70903C80F48A3012
:10269000B0F4843020F4823090F480E008958630E5
:1026A000E1F781E0203E88F0213FB9F70EC08C3081
:1026B00011F08F3091F793FB882780F9089581E01E
:1026C000203F39F018F4203E40F70895243F29F7C1
:1026D000FCCF0895CF93DF9300D000D00F92CDB7F9
:1026E000DEB70F900F900F900F900F90DF91CF916A
:1026F0000895CF93DF9300D000D000D0CDB7DEB7E0
:1027000026960FB6F894DEBF0FBECDBFDF91CF91F6
:1027100008951F93CF93DF93E091700116E08091AD
:1027200071018E1304C0DF91CF911F910895CE2FB8
:10273000D0E01E9FF0011124EE58FE4F40815181E0
:1027400062817381848195810E947913FE013196A3
:10275000E770E5CF4091A2015091A3016091A401DF
:102760007091A5018091A6019091A7010C94791315
:102770001F93CF93DF938091A701807FC1F4809155
:10278000A4018823A1F080917001C0917101609132
:10279000A2017091A3014091A5015091A601D62FED
:1027A000D723DA01A095B09516E0C81304C0DF91D5
:1027B000CF911F91089590E04115510511F0DF3F31
:1027C00031F401968770F1CF2A0F3B1F17C0189F75
:1027D000F001199FF00D1124EE58FE4F21812713AF
:1027E000F0CF20812613EDCF22812111EACF238162
:1027F00034812417350740F3241B350B283C310561
:1028000000F72091A7012F7020612093A70126E0F7
:10281000289FF001299FF00D1124E958FE4F808177
:102820008F708061808382EA91E00E94FD12DF91C7
:10283000CF911F910C9489139F92AF92BF92CF9228
:10284000DF92EF92FF920F931F93CF93DF93CDB759
:10285000DEB72B970FB6F894DEBF0FBECDBF8C014D
:1028600085E0F801DE01179601900D928A95E1F757
:10287000D8014C9111965C9111971296EC90129799
:102880008091A5019091A601009709F46BC1209158
:10289000A2013091A301632F62236F3F09F462C14B
:1028A0001396CD90DC909090A401992009F4F8C083
:1028B000C816D90608F43FC0F601E81BF90BCF0192
:1028C000FF24F394883C910508F0F12C82EAA82EAD
:1028D00081E0B82E8091A701982F907FFF2009F406
:1028E000B7C0911180C0FE2C35132AC0241328C014
:1028F000E11026C08F7080618093A7010E94AA1307
:10290000C5010E94FD128091A701D80115968C93F4
:102910008F2D2B960FB6F894DEBF0FBECDBFDF9183
:10292000CF911F910F91FF90EF90DF90CF90BF90CC
:10293000AF909F900895809590958C0D9D1DC0CF70
:10294000CD2829F0842F85238F3F09F019C180E01D
:10295000B82FB170DB2EE09170012091710136E04B
:1029600080FD1CC0EE20A1F28091A70181608093C0
:10297000A701F12CCDCF8E2F90E03E9FF0011124C6
:10298000EE58FE4F6181651306C06081641303C079
:1029900062816E11E7CFFC013196E770E213EBCF55
:1029A0004F8358878F8198850E940019292F22957F
:1029B0002F70903260F0225F2F70223078F49F7079
:1029C00051F0F8019581907F31F4D12C0AC09F70AD
:1029D00011F08823D1F3805E8830B8F3C8010E94DB
:1029E000FD12FD2C95CF351306C0241304C0D80169
:1029F000EE2009F47BC04F8358878F8198850E9411
:102A00003F13882309F4B8C0EE2009F4B5C08091C3
:102A1000A701803270F02091A2013091A3013A8386
:102A200029831B82DD82CC828E83CE0101960E9497
:102A3000FD1286E0F801A2EAB1E001900D928A95BC
:102A4000E1F70E94B8130E94AA13FF24F39460CF09
:102A5000911113C07C2DDB86CA866E2D8B850E945A
:102A60006A1382EA91E00E94FD1286E0F50111925C
:102A70008A95E9F70E94AA134BCF3513BCCF2413D4
:102A8000BACFE110B8CFD80115968C93C8010E9437
:102A9000FD1286E0F50111928A95E9F7F92C38CFFD
:102AA000C816D90688F1B601681B790BCB01F12C49
:102AB000883C910508F047C0FE2CEE2009F45CC06C
:102AC000351330C024132EC08091A70180FD21C092
:102AD000982F907FF1F0D80115968C931597903F21
:102AE00039F0982F907F905F8F70892B15968C937B
:102AF000C8010E94FD1286E0F801A2EAB1E001904F
:102B00000D928A95E1F7B6CF809590958C0D9D1D1D
:102B1000CECF86E0F801A2EAB1E001900D928A954D
:102B2000E1F7F6CE4F8358878F8198850E943F1337
:102B300081117FCF8091A70181608093A701C80197
:102B40000E94FD12E5CE7C2DDB86CA866E2D8B851C
:102B50000E946A1386E0E2EAF1E0DF011D928A95A5
:102B6000E9F788CFEE2041F04F8358878F81988511
:102B70000E943F1381115DCFC8010E94FD1265CFF5
:102B800081E08E25E5CE1F93CF93DF93CDB7DEB7DF
:102B90002C970FB6F894DEBF0FBECDBF4F8358877A
:102BA00069877A878B879C87CE0107960E941C14C1
:102BB000882369F08A859B85892B39F04F81588558
:102BC000842F85238F3F09F071C016E05FC086E037
:102BD000FE013796DE01119601900D928A95E1F77C
:102BE0008A859B85892B89F388859F8189238F3FDF
:102BF00061F32091710130E0C90101968770992736
:102C0000409170014817190671F40E943B1310920D
:102C100071011092700186E0E2EAF1E0DF011D929D
:102C20008A95E9F7D2CF96E0929FD001939FB00D9D
:102C30001124AE58BE4FFE01319601900D929A9527
:102C4000E1F7809371010E948913BFCF819FC0017A
:102C500011248E589E4F0E941C148823E9F0E091A5
:102C600070011E9FF0011124EE58FE4F40815181EA
:102C700062817381848195810E94791380917001B2
:102C800090E0019687709927809370018091700180
:102C9000909171018913DACF2C960FB6F894DEBFAC
:102CA0000FBECDBFDF91CF911F91089569857A85C1
:102CB0008B859C850E94791388CFEF92FF920F93AA
:102CC0001F93CF93DF938C01892B89F0F12CEE2495
:102CD000E394E8012196F8018491843709F457C000
:102CE000A0F4823009F43EC048F48130D1F0DF9185
:102CF000CF911F910F91FF90EF9008959CEF980F47
:102D00009037A8F70E94750F0AC0853709F44CC0A8
:102D10009CE7980F903758F78F770E9451108E01DB
:102D200016C00E5F1F4FFE01849190E2980F9830FD
:102D300060F48770FE2D01C0FF0F8A95EAF78F2F90
:102D40000E94091A0E94301A02C00E94750F8F2D2E
:102D5000815008F4BECFEFE9FFE03197F1F700C0F2
:102D60000000F6CF0E5F1F4FFE01849190E2980F96
:102D7000983050F48770FE2D01C0FF0F8A95EAF756
:102D80008F2F0E940F1ADECF0E945110E0CF0E5FEE
:102D90001F4FFE01C491C150D0F28FE99FE001970F
:102DA000F1F700C00000F7CF0E5F1F4FFE01F49057
:102DB000CECF08956093B6017093B7018093B801A8
:102DC0009093B9010C942713CF93DF9300D000D0D8
:102DD000CDB7DEB769837A838B839C838091B601FC
:102DE0009091B701A091B801B091B90129813A81C0
:102DF0004B815C81822B932BA42BB52B8093B60146
:102E00009093B701A093B801B093B9010F900F90C0
:102E10000F900F90DF91CF910C942713CF93DF93F6
:102E200000D000D0CDB7DEB769837A838B839C83D3
:102E30008091B6019091B701A091B801B091B9010C
:102E400029813A814B815C8182239323A423B5237A
:102E50008093B6019093B701A093B801B093B901E4
:102E60000F900F900F900F90DF91CF910C9427133C
:102E7000CF93DF9300D000D0CDB7DEB769837A83DC
:102E80008B839C838091B6019091B701A091B8018A
:102E9000B091B90129813A814B815C8182279327C6
:102EA000A427B5278093B6019093B701A093B801EA
:102EB000B093B9010F900F900F900F90DF91CF91C9
:102EC0000C9427131092B2011092B3011092B40126
:102ED0001092B5010C94271341E050E060E070E0DF
:102EE00004C0440F551F661F771F8A95D2F7409381
:102EF000B2015093B3016093B4017093B5010C9487
:102F00002713282F81E090E0A0E0B0E004C0880FF4
:102F1000991FAA1FBB1F2A95D2F74091B201509169
:102F2000B3016091B4017091B501842B952BA62B50
:102F3000B72B8093B2019093B301A093B401B093E7
:102F4000B5010C94271341E050E060E070E004C04C
:102F5000440F551F661F771F8A95D2F740955095ED
:102F6000609570958091B2019091B301A091B401E8
:102F7000B091B50184239523A623B7238093B20192
:102F80009093B301A093B401B093B5010C942713AF
:102F9000282F81E090E0A0E0B0E004C0880F991FE6
:102FA000AA1FBB1F2A95D2F74091B2015091B301DD
:102FB0006091B4017091B50184279527A627B727A2
:102FC0008093B2019093B301A093B401B093B50183
:102FD0000C942713CF93DF9300D000D0CDB7DEB78A
:102FE00069837A838B839C838091B2019091B30132
:102FF000A091B401B091B50129813A814B815C81E6
:10300000822B932BA42BB52B8093B2019093B30109
:10301000A093B401B093B5010F900F900F900F9053
:10302000DF91CF910C942713CF93DF9300D000D082
:10303000CDB7DEB769837A838B839C838091B2019D
:103040009091B301A091B401B091B50129813A8169
:103050004B815C8182239323A423B5238093B20107
:103060009093B301A093B401B093B5010F900F906A
:103070000F900F90DF91CF910C942713CF93DF9394
:1030800000D000D0CDB7DEB769837A838B839C8371
:103090008091B2019091B301A091B401B091B501BA
:1030A00029813A814B815C8182279327A427B52708
:1030B0008093B2019093B301A093B401B093B50192
:1030C0000F900F900F900F90DF91CF910C942713DA
:1030D0000895E92FEE0FEE0FE80F8E2F877041E075
:1030E00001C0440F8A95EAF7E695E695E69585E0F6
:1030F000E89FF0011124E855FE4F30E020E070E039
:103100005191DF011197CB01022E02C09695879550
:103110000A94E2F7817081958527842385278C9313
:103120002F5F3F4F2530310559F70895E92FEE0FF6
:10313000EE0FE80F9E2F9770E695E695E69585E0F1
:10314000E89FF0011124E855FE4F50E040E080E098
:10315000219130E0092E02C0369527950A94E2F7B6
:1031600021703327042E01C0220F0A94EAF7822B24
:103170004F5F5F4F4530510559F70895BF92CF9289
:10318000DF92EF92FF920F931F93CF93DF938C0107
:10319000C090B201D090B301E090B401F090B501BD
:1031A0008091B6019091B701A091B801B091B90199
:1031B000C82AD92AEA2AFB2ACFE1D0E0BC2ED701BF
:1031C000C6010C2E04C0B695A795979587950A94CD
:1031D000D2F780FD0EC0219788F7B12C8B2DDF919F
:1031E000CF911F910F91FF90EF90DF90CF90BF9004
:1031F0000895B8018C2F0E941006019761F3EECF5D
:10320000CF93DF93D82FC92F0E94BE186D2F7C2F2C
:10321000DF91CF910C9410061F93CF93DF93162F5D
:10322000D72F90916F01992339F0862F972FDF9137
:10323000CF911F910C940019882391F0862F972F1E
:103240000E94BE18C82F682F812F9D2F0E946918D9
:10325000612F7D2F8C2FDF91CF911F910C94100641
:10326000862F972F0E949618C82FF2CF8091BA010F
:1032700085958595859508958091BA018770089503
:1032800098E0899F90011124622B6093BA010C94FD
:1032900081179091BA01809589238093BA01282FD4
:1032A000277061F4282F082E000C330B9217130699
:1032B00029F08595859585950C94A317089590918F
:1032C000BA01977081E009F480E0089590911301AC
:1032D0009923E1F090911B0297FF18C0E82FE69523
:1032E000E695E695EF3139F1209101013091020127
:1032F000E20FF32FF11D877021E030E001C0220FB3
:103300008A95EAF78181822B8183089520910101BA
:1033100030910201F90132969FEF40E051918517FB
:1033200051F09F3F19F4511101C0942F4F5F4E315E
:10333000A9F79F3F09F40895290F311D97FD3A958C
:10334000F9018283089590911301992301F19091DD
:103350001B0297FF1CC0E82FE695E695E695EF3136
:1033600039F12091010130910201E20FF32FF11D9B
:10337000877021E030E0A90102C0440F551F8A95F3
:10338000E2F7CA0180959181892381830895209174
:10339000010130910201F9013296205E3F4F919177
:1033A000891303C0DF0111971C92E217F307B9F7E5
:1033B000089581E090E0E0910101F0910201E80FB1
:1033C000F91F1082019680329105A9F70895909116
:1033D000DE01982B9093DE010895982F90958091AF
:1033E000DE0189238093DE0108951092DE010895A5
:1033F0009091DD01982B9093DD010895982F909581
:103400008091DD0189238093DD0108951092DD0113
:1034100008959091DC01982B9093DC010895982FEA
:1034200090958091DC0189238093DC0108951092AE
:10343000DC0108958093BB0108951092BB010895AB
:103440002091010130910201F9013196205E3F4F38
:1034500080E0919191118F5FE217F307D1F7089502
:10346000E0910101F09102018091DE018083E09101
:103470000101F091020180819091DD01892B80830F
:10348000E0910101F091020180819091DC01892B92
:1034900080839091BB01992361F0E0910101F0914B
:1034A00002018081892B80830E94201A8111109251
:1034B000BB0180910101909102010C945D0E6DEEB3
:1034C0007EEF90E080E00E94E92760E082E090E0FB
:1034D0000E94CB2760E083E090E00E94CB2760E071
:1034E00084E090E00E94CB2760E085E090E00E94BD
:1034F000CB2740E050E0BA0188E090E00C94DD2753
:1035000090E080E00E94C5279C0181E02D3E3E4F67
:1035100009F080E0089582E090E00C94B727682FCE
:1035200082E090E00C94CB2783E090E00C94B727E6
:10353000682F83E090E00C94CB2784E090E00C941B
:10354000B727682F84E090E00C94CB27809121026C
:10355000843039F11092E00188E190E020E40FB668
:10356000F894A895809360000FBE2093600080E0DF
:103570000E94F20583B7817F846083BF83B7816037
:1035800083BF7894889583B78E7F83BF0FB6F894F6
:10359000A89580916000886180936000109260001F
:1035A0000FBE089508950895CF930E94D21A0E94E5
:1035B000A4080E94D31AC0E08C2F0E9447098111F1
:1035C00005C0CF5FC430C1F7CF91089581E0FCCF33
:1035D0000E943B130E94510E0C94F2051F921FB6DD
:1035E0001F9211248F939F93AF93BF938091E0011B
:1035F000811113C08091170290911802A0911902B5
:10360000B0911A024196A11DB11D809317029093AB
:103610001802A0931902B0931A02BF91AF919F9123
:103620008F911F901FBE1F90189582E084BD93E07C
:1036300095BD9AEF97BD80936E0008952FB7F894CB
:103640008091170290911802A0911902B0911A026C
:103650002FBF0895CF92DF92EF92FF929C014FB758
:10366000F8948091170290911802A0911902B091DC
:103670001A024FBF6C017D01EE24FF24A90170E006
:1036800060E0C416D506E606F70638F0821B930BF9
:10369000FF90EF90DF90CF9008950197F7CF1F92A2
:1036A0001FB61F9211248F939F93AF93BF93809166
:1036B000170290911802A0911902B0911A02019676
:1036C000A11DB11D8093170290931802A0931902B7
:1036D000B0931A02BF91AF919F918F911F901FBE1F
:1036E0001F9018950E946023F8942FEF87EA91E6C7
:1036F000215080409040E1F700C0000087E090EB4F
:10370000DC0180932A0290932B02A0932C02B093A9
:103710002D0288E19CE00FB6F894A8958093600094
:103720000FBE90936000FFCFCF92DF92EF92FF9297
:103730000F931F93CF93C0E0E82EF12C8C2F0E94A3
:10374000470910E000E0C82ED12CC601002E02C0AF
:10375000959587950A94E2F780FF11C0602F7C2F22
:1037600080E00E94F505E816F90649F481E0CF9162
:103770001F910F91FF90EF90DF90CF9008950F5F12
:103780001F4F0430110509F7CF5FC430B9F680E050
:10379000EECFCF93C82F8CE20E94941B882321F098
:1037A0008C2FCF910C94941B80E0CF910895CF93F0
:1037B000DF9300D000D0CDB7DEB70E94801A811110
:1037C00002C00E945F1A95E6998308C00E94A4086F
:1037D0008FE39CE90197F1F700C00000A981A15097
:1037E000A983A111F3CF89E20E94C91B811110C1E5
:1037F0008AE20E94C91B81110E945F1A85E00E9423
:10380000C91B81110E94721B0E948B1A8093DF01D9
:1038100087E00E94C91B882371F08BE10E94C91BBD
:10382000882309F4D1C09091DF01892F8D7F91FF0A
:1038300082608093DF018091DF010E948F1A0E94D5
:103840009D1A90E090931C0280931B0280EE0E94D0
:10385000C91B882341F090911B02892F8E7F90FF16
:10386000816080931B0289E30E94C91B882341F079
:1038700090911B02892F8D7F91FF826080931B02A4
:1038800082EE0E94C91B882341F090911B02892F70
:103890008B7F92FF846080931B0286EE0E94C91B7F
:1038A000882341F090911B02892F877F93FF8860C6
:1038B00080931B0283EE0E94C91B882341F09091E4
:1038C0001B02892F8F7E94FF806180931B0285E30A
:1038D0000E94C91B882341F090911B02892F8F7D84
:1038E00095FF806280931B0281E30E94C91B88239D
:1038F00041F090911B02892F8F7B96FF806480930B
:103900001B0281E10E94C91B882341F090911B0298
:10391000892F97FB87F9805880931B0280911B02A7
:103920000E94A11A87E20E94C91B89838EE10E942E
:10393000C91B882319F0B981B260B9838FE10E9455
:10394000C91B882319F029812460298380E20E9401
:10395000C91B882319F039813860398381E20E94BC
:10396000C91B882319F049814061498382E20E9482
:10397000C91B882319F059815062598383E20E9440
:10398000C91B882319F089818064898384E20E949D
:10399000C91B8823B1F199819068998389810E941C
:1039A000981A3981232F30E050E040E029833A8390
:1039B0004B835C83CA01B9010F900F900F900F9059
:1039C000DF91CF910C94DA168EE00E94C91B8823F8
:1039D00039F09091DF01892F8B7F92FF846029CF8E
:1039E00080E10E94C91B9091DF01882329F0892F73
:1039F000877F93FF88601DCF892F8E7F90FF816026
:103A000018CFA981A111CACF0E94941A282FCBCF19
:103A10000F900F900F900F90DF91CF9108958091AC
:103A2000E30180FF12C06091060185E0689FB0014C
:103A30001124759567957595679560387105A8F59A
:103A400061157105A1F1862F089581FF09C060916C
:103A5000060185E0689FB001112475956795EDCF4B
:103A60006091060182FD0AC08091E4018823D1F0B3
:103A70009091050160910601891728F085E0689F03
:103A8000B0011124DACF869FB001112485E0869F12
:103A90009001879F300D1124692F70E0C9010E94A9
:103AA0009D27CBCF65E070E0CECF8FE7089581E012
:103AB00008958091E30180FF0CC06091040170E0E3
:103AC00075956795759567956115710549F1862F0F
:103AD000089581FF06C06091040170E075956795B7
:103AE000F3CF6091040182FD0BC09091E401992312
:103AF000A1F06091030180910401961738F0682FBE
:103B000070E06038710500F38FE70895899FC00168
:103B1000112470E00E949D27F4CF61E070E0D7CFC0
:103B200081E00895803F31F40E940F1D81958093BC
:103B3000E7010895813F19F40E940F1DF8CF823FDD
:103B400031F40E940F1D81958093E6010895833F13
:103B500019F40E940F1DF8CF893F29F40E94591DC6
:103B60008093E80108958A3F21F40E94591D8195B0
:103B7000F7CF8B3F31F40E94591D81958093E90165
:103B800008958C3F19F40E94591DF8CF843F31F4F9
:103B90008091E50181608093E5010895853F21F4DE
:103BA0008091E5018260F7CF863F21F48091E501A5
:103BB0008460F1CF873F21F48091E5018860EBCFED
:103BC000883F21F48091E5018061E5CF8D3F31F49C
:103BD0008091E30181608093E30108958E3F21F499
:103BE0008091E3018260F7CF8F3FB9F78091E301C5
:103BF0008460F1CF9091E601803F41F48091E7012C
:103C000087FD1092E701992371F00895813F29F40F
:103C10008091E7011816ACF3F6CF823F81F497FF4D
:103C2000F2CF1092E6018091E7019091E801892B93
:103C30009091E901892B49F71092E4010895833F9F
:103C400019F4191674F3DFCF893F39F48091E80134
:103C50001816CCF61092E801D6CF8A3F29F480914D
:103C6000E80187FFD0CFF6CF8B3F39F48091E9018F
:103C700087FFC9CF1092E901C6CF8C3F29F480910C
:103C8000E9011816BCF3BFCF843F31F48091E50100
:103C90008E7F8093E501B7CF853F21F48091E501C8
:103CA0008D7FF7CF863F21F48091E5018B7FF1CFA7
:103CB000873F21F48091E501877FEBCF883F21F496
:103CC0008091E5018F7EE5CF8D3F31F48091E30156
:103CD0008E7F8093E30197CF8E3F21F48091E301A3
:103CE0008D7FF7CF8F3F09F08ECF8091E3018B7FDF
:103CF000F0CF85EE91E00E94680E0E941E1B90930B
:103D0000E2018093E10108951F93CF93DF9300D0E8
:103D100000D000D0CDB7DEB78091E1019091E201F3
:103D20000E942A1BAC018091E4012091070130E040
:103D3000811106C0209108019AE0299F9001112469
:103D40004217530788F02091E601A091E701A9836B
:103D50001091E801B091E901BE8321110FC09A2FA3
:103D6000912B9B2B09F0B2C026960FB6F894DEBFBC
:103D70000FBECDBFDF91CF911F9108958F3F19F0F6
:103D80008F5F8093E401121624F40E940F1D80932C
:103D9000E6018091E60187FF05C00E940F1D819515
:103DA0008093E6012981121624F40E940F1D80934E
:103DB000E7018091E70187FF05C00E940F1D8195F3
:103DC0008093E7018091E601882309F455C0309182
:103DD000E7013D83332309F44FC0282F880F330BAD
:103DE000440B550B29833A834B835C83CA01B90189
:103DF0000E94902623E333E343E35FE369837A83FE
:103E00008B839C8369817A818B819C810E94F426BB
:103E100069837A838B839C8369817A818B819C817E
:103E20000E9458266093E6018D81082E000C990BA4
:103E3000AA0BBB0B89839A83AB83BC83BC01CD01E6
:103E40000E94902623E333E343E35FE369837A83AD
:103E50008B839C8369817A818B819C810E94F4266B
:103E600069837A838B839C8369817A818B819C812E
:103E70000E9458266093E701111624F40E94591DF0
:103E80008093E8018091E80187FF05C00E94591DD9
:103E900081958093E8019E81191624F40E94591D92
:103EA0008093E9018091E90187FF05C00E94591DB7
:103EB00081958093E90126960FB6F894DEBF0FBE78
:103EC000CDBFDF91CF911F910C94791E8F3F09F0E8
:103ED00057CF68CF85E0E5EEF1E0DF011D928A95CE
:103EE000E9F71092E4011092E301089580910A022B
:103EF0000895CF93DF9300D00F92CDB7DEB7209116
:103F00002102243019F523E029838A839B8320939F
:103F1000E9008FEF9091E800815095FD06C095ED86
:103F20009A95F1F700008111F5CF8091E80085FFA7
:103F30000DC050E040E063E070E0CE0101960E94C9
:103F4000D8218091E8008E778093E8000F900F9041
:103F50000F90DF91CF910895CF93DF9300D00F9210
:103F6000CDB7DEB79C0180912102843031F582E02B
:103F70008983205831093B832A8383E08093E900B9
:103F80008FEF9091E800815095FD06C095ED9A95D0
:103F9000F1F700008111F5CF8091E80085FF0DC099
:103FA00050E040E063E070E0CE0101960E94D8212D
:103FB0008091E8008E778093E8000F900F900F902B
:103FC000DF91CF910895209121022430F1F422E075
:103FD0002093E9002FEF3091E800215035FD06C015
:103FE00035ED3A95F1F700002111F5CF2091E80069
:103FF00025FF0BC050E040E065E070E00E94D82152
:104000008091E8008E778093E8000895CF93DF9346
:10401000D82FC92F809121028430F1F4909113019F
:104020009923E9F090911B0297FF19C08093E90052
:104030008FEF9091E800815095FD06C095E19A952B
:10404000F1F700008111F5CF8091E80050E040E0E9
:1040500060E270E085FD1AC0DF91CF91089581E0A4
:104060008093E9008FEF9091E800815095FD06C0A4
:1040700095ED9A95F1F700008111F5CF8091E80058
:1040800085FFEACF50E040E068E070E08D2F9C2F84
:104090000E94D8218091E8008E778093E80080E22A
:1040A000ED2FFC2FAAEEB1E001900D928A95E1F779
:1040B000D3CF80912002811109C00E9460230E9409
:1040C000BD238091E20084608093E2000895109205
:1040D00020020895089508950C94E81A42E061ECD6
:1040E00081E00E94DC2242E061EC82E00E94DC225E
:1040F00042E061EC83E00E94DC2242E261EC84E079
:104100000C94DC2280912302893089F148F48230BA
:1041100009F494C0833009F44FC0813041F0089510
:104120008A3009F47BC08B3009F461C00895809116
:104130002202813A09F03FC08091E800877F809396
:10414000E8008091260290912702892B61F460E2B9
:104150008AEE91E070E00E9427228091E8008B7740
:104160008093E800089560E090E080E0F3CF8091D4
:104170002202813201F58091260290912702009758
:1041800011F00397C1F48091E800877F8093E800E5
:104190008091E80082FF0BC08091F10080930A02B9
:1041A0008091E8008B778093E8000C941023809135
:1041B00021028111EDCF089580912202813AD9F731
:1041C0008091260290912702892BA9F78091E8001F
:1041D000877F8093E8008091E80080FFFCCF80918A
:1041E00013018093F1008091E8008E77DCCF8091FD
:1041F0002202813201F78091260290912702892BB9
:10420000D1F68091E800877F8093E8000E94102318
:1042100080912402809313010C943B13809122021D
:10422000813249F68091E800877F8093E8000E9400
:1042300010238091250280930B0208958091220221
:10424000813A09F0B8CF8091E800877F8093E80039
:104250008091E80080FFFCCF80910B02C2CF84B731
:10426000877F84BF0FB6F894A8958091600088611D
:1042700080936000109260000FBE80E88093610020
:10428000109261000E94A00E0E9460230E94BD2334
:104290008091E20084608093E20078940E943D2641
:1042A0000E94A20E89E091E00E944C0E80912102B2
:1042B000853029F00E94AA0E0E94190EF7CF0E94A5
:1042C000A61A80911F02882389F30E94D41A88239A
:1042D00069F30E94C221EACF9C01DA01892F992754
:1042E00083309105C1F068F48130910509F445C02F
:1042F000029761F48DE690E023EB35E02D933C933B
:10430000089581329105E1F0829739F190E080E0E3
:1043100030E020E0F3CFC9019927213059F08230F5
:10432000910559F0EFEAF5E0892B81F7849190E04F
:104330009F01E4CFE7E9F5E0F9CFE3E8F5E0F6CF58
:10434000643020F7E62FF0E0EE0FFF1FE85DFE4F30
:104350002081318189E090E0D1CF6430B8F670E0FF
:10436000FB01EE0FFF1FE05EFE4F20813181645E96
:104370007E4FFB01808190E0C1CF82E190E020E29E
:1043800036E0BCCF80E189BD82E189BD09B400FE81
:10439000FDCF8091D8008F7D8093D8008091E00080
:1043A00082608093E0008091E00081FDFCCF089561
:1043B000AF92BF92CF92DF92FF920F931F93CF9352
:1043C000DF936C01EB018A010E942F23F82E8111EB
:1043D00023C00115110539F0F80180819181C81BB6
:1043E000D90BC80ED91EB12CA12C2097A9F0809111
:1043F000E80085FD22C08091E8008E778093E80078
:1044000001151105A1F0F80180819181A80EB91E56
:10441000B182A08285E0F82E8F2DDF91CF911F9180
:104420000F91FF90DF90CF90BF90AF9008950E94C2
:104430002F238823D1F2F82EEFCFF60181916F015F
:104440008093F1002197FFEFAF1ABF0ACECFFC0196
:10445000CB0120912802309129022617370790F0CE
:10446000009729F42091E8002E772093E80040E09F
:10447000009751F4411108C08091E80082FF31C0DB
:1044800080E00895C901F3CF209121022223A9F1F0
:104490002530A9F12091E80023FD2DC02091E800EE
:1044A00022FDEACF2091E80020FFE2CF3091F30017
:1044B0002091F200009719F02830310558F041E0C2
:1044C0002830310509F040E02091E8002E77209354
:1044D000E800CECF41914093F10001972F5F3F4F0D
:1044E000E9CF80912102882341F0853041F080910D
:1044F000E80083FFC1CF81E0089582E0089583E062
:104500000895FC01CB012091280230912902261741
:10451000370790F0009729F42091E8002E77209338
:10452000E80040E0009751F4411108C08091E80094
:1045300082FF32C080E00895C901F3CF20912102AB
:104540002223B1F12530B1F12091E80023FD2EC0E6
:104550002091E80022FDEACF2091E80020FFE2CF81
:104560003091F3002091F200009719F028303105C6
:1045700058F041E02830310509F040E02091E80092
:104580002E772093E800CECF44914093F1003196EE
:1045900001972F5F3F4FE8CF80912102882341F0A0
:1045A000853041F08091E80083FFC0CF81E008951D
:1045B00082E0089583E00895982F973028F08F7057
:1045C0008093E90081E008959093E900242F762FED
:1045D00050E0981731F07091EC002091ED0050916F
:1045E000F00021FD02C09F5FE8CF3091EB003E7FDD
:1045F0003093EB003091ED003D7F3093ED00309132
:10460000EB0031603093EB007093EC002093ED00F1
:104610005093F0002091EE0027FDE5CF80E0089553
:104620008091220287FF13C08091E80082FF06C0BC
:104630008091E8008B778093E80004C0809121028C
:104640008111F2CF0895809121028823D9F38091BE
:10465000E80080FFF8CF8091E8008E77ECCF2091C2
:10466000E4003091E50095E6A9012091EC00822F4D
:10467000817020FF06C08091E80080FF06C080E0C6
:1046800008952091E80022FD1AC08091210288231C
:1046900089F0853089F08091EB0085FD0FC0209175
:1046A000E4003091E50042175307F9F29150E1F62A
:1046B00084E0089582E0089583E0089581E00895FC
:1046C0000E94CE230E94D623E0EEF0E0808181603C
:1046D0008083E8EDF0E080818F77808319BCA7EDBF
:1046E000B0E08C918E7F8C9380818F7E808310923E
:1046F000200208950F931F93CF93DF930E94CE2340
:104700000E94D623C8EDD0E088818F778883888186
:104710008068888388818F7D888319BC10922102EC
:1047200010921D0210921F0210921E0200EE10E065
:10473000F80180818B7F808388818160888342E05B
:1047400060E080E00E94DC22E1EEF0E080818E7F7C
:104750008083E2EEF0E080818160808380818860E8
:104760008083F80180818E7F808388818061888347
:10477000DF91CF911F910F910895E8EDF0E08081D6
:104780008F7E8083E7EDF0E080818160808384E02C
:1047900082BF81E0809320020C947A23E8EDF0E060
:1047A00080818E7F80831092E20008951092DA005B
:1047B0001092E10008951F920F920FB60F921124EC
:1047C0002F933F934F935F936F937F938F939F9319
:1047D000AF93BF93EF93FF938091E10082FF0BC0F3
:1047E0008091E20082FF07C08091E1008B7F80937F
:1047F000E1000E943C268091DA0080FF19C0809180
:10480000D80080FF15C08091DA008E7F8093DA0097
:104810008091D90080FF94C080E189BD82E189BD8B
:1048200009B400FEFDCF81E0809321020E9459204F
:104830008091E10080FF19C08091E20080FF15C0E7
:104840008091E2008E7F8093E2008091E20080619F
:104850008093E2008091D80080628093D80019BCD8
:1048600085E0809321020E946B208091E10084FF0B
:1048700029C08091E20084FF25C080E189BD82E1EA
:1048800089BD09B400FEFDCF8091D8008F7D809353
:10489000D8008091E1008F7E8093E1008091E2005A
:1048A0008F7E8093E2008091E20081608093E2003D
:1048B00080911D02882309F449C084E0809321027D
:1048C0000E946C208091E10083FF29C08091E2006A
:1048D00083FF25C08091E100877F8093E10082E023
:1048E0008093210210921D028091E1008E7F8093BF
:1048F000E1008091E2008E7F8093E2008091E200EF
:1049000080618093E20042E060E080E00E94DC226F
:104910008091F00088608093F0000E946A20FF91EF
:10492000EF91BF91AF919F918F917F916F915F9127
:104930004F913F912F910F900FBE0F901F901895A0
:1049400019BC109221020E94672072CF8091E3006F
:1049500087FD02C081E0B2CF83E0B0CF1F920F92FB
:104960000FB60F9211242F933F934F935F936F9342
:104970007F938F939F93AF93BF93CF93DF93EF93E7
:10498000FF93D091E900DF708091EC00C82FC170D7
:1049900080FDC0E81092E9008091F000877F80934D
:1049A000F00078940E94F2241092E9008091F000C7
:1049B00088608093F000CD2BCF70C093E900FF9109
:1049C000EF91DF91CF91BF91AF919F918F917F91A7
:1049D0006F915F914F913F912F910F900FBE0F906C
:1049E0001F9018951F93CF93DF93CDB7DEB7AA978B
:1049F0000FB6F894DEBF0FBECDBF82E292E0FC019D
:104A000001962091F100208322E08A329207B9F7C3
:104A10000E9482208091E80083FF16C180912202CB
:104A2000909123029A3008F00FC1E92FF0E0E05C8A
:104A3000F74D0C94B127803881F0823809F004C119
:104A4000809126028F708093E9008091EB0085FBB6
:104A5000882780F91092E90006C080911E0290918B
:104A60001F02911182609091E800977F9093E80077
:104A70008093F1001092F1008091E8008E77E0C001
:104A8000882309F4CEC0823009F0DEC08091240270
:104A90008111D1C0809126028F7009F4D5C0809316
:104AA000E9002091EB0020FFC6C0933031F48091E3
:104AB000EB0080628093EB00BEC09091EB009061B0
:104AC0009093EB0021E030E001C0220F8A95EAF7D5
:104AD0002093EA001092EA008091EB008860EACF10
:104AE0008111B2C0109124021F778091E300807879
:104AF000812B8093E3008091E800877F8093E8001A
:104B00000E9410238091E80080FFFCCF8091E30099
:104B100080688093E30082E0111183E0809321029A
:104B200093C08058823008F08FC080912402909109
:104B300025028C3D23E09207A1F583E08A838AE277
:104B400089834FB7F894DE01139620E03EE051E2EE
:104B5000E32FF0E050935700E49120FF03C0E2956B
:104B6000EF703F5FEF708E2F90E0EA30C0F0C79695
:104B70008D939D932F5F243159F74FBF8091E800AB
:104B8000877F8093E8006AE270E0CE0101960E9480
:104B900027228091E8008B778093E80055C0C0966B
:104BA000E7CFAE014F5F5F4F609126020E946C21FC
:104BB000BC01892B09F448C08091E800877F80936D
:104BC000E80089819A810E948122E3CF8038E1F553
:104BD0008091E800877F8093E80080911D02809398
:104BE000F1004ACF811130C090912402923060F5DB
:104BF0008091E800877F8093E80090931D020E94D7
:104C0000102380911D02882311F084E005C080915B
:104C1000E30087FDFACF81E0809321020E946E209D
:104C200013C080912402813079F481E0933009F03F
:104C300080E080931F021092E9008091E800877F56
:104C40008093E8000E9410238091E80083FF0AC04F
:104C50008091E800877F8093E8008091EB0080627C
:104C60008093EB00AA960FB6F894DEBF0FBECDBFBF
:104C7000DF91CF911F9108950895CF9380912102E4
:104C80008823A1F0C091E900CF709091EC00892FAA
:104C9000817090FD80E8C82B1092E9008091E800B7
:104CA00083FD0E94F224CF70C093E900CF91089554
:104CB0000E945F266894B1110C94EE2608950E941C
:104CC000D32688F09F5798F0B92F9927B751B0F0A5
:104CD000E1F0660F771F881F991F1AF0BA95C9F780
:104CE00014C0B13091F00E94ED26B1E008950C940B
:104CF000ED26672F782F8827B85F39F0B93FCCF3BE
:104D0000869577956795B395D9F73EF490958095FC
:104D1000709561957F4F8F4F9F4F0895E89409C01C
:104D200097FB3EF490958095709561957F4F8F4FDE
:104D30009F4F9923A9F0F92F96E9BB279395F695F4
:104D4000879577956795B795F111F8CFFAF4BB0F72
:104D500011F460FF1BC06F5F7F4F8F4F9F4F16C0D6
:104D6000882311F096E911C0772321F09EE8872F60
:104D7000762F05C0662371F096E8862F70E060E01C
:104D80002AF09A95660F771F881FDAF7880F969595
:104D9000879597F9089557FD9058440F551F59F07E
:104DA0005F3F71F04795880F97FB991F61F09F3F18
:104DB00079F087950895121613061406551FF2CF41
:104DC0004695F1DF08C0161617061806991FF1CF91
:104DD00086957105610508940895E894BB276627B8
:104DE0007727CB0197F908950E9407270C9478271D
:104DF0000E946A2738F00E94712720F0952311F055
:104E00000C9461270C94672711240C94EE260E94C1
:104E1000CB2670F3959FC1F3950F50E0551F629F0D
:104E2000F001729FBB27F00DB11D639FAA27F00D03
:104E3000B11DAA1F649F6627B00DA11D661F829F2A
:104E40002227B00DA11D621F739FB00DA11D621F0F
:104E5000839FA00D611D221F749F3327A00D611D2C
:104E6000231F849F600D211D822F762F6A2F11240E
:104E70009F5750409AF0F1F088234AF0EE0FFF1F41
:104E8000BB1F661F771F881F91505040A9F79E3F98
:104E9000510580F00C9461270C94EE265F3FE4F3FB
:104EA000983ED4F3869577956795B795F795E795EE
:104EB0009F5FC1F7FE2B880F911D9695879597F9F7
:104EC000089597F99F6780E870E060E008959FEF8C
:104ED00080EC089500240A94161617061806090691
:104EE000089500240A941216130614060506089560
:104EF000092E0394000C11F4882352F0BB0F40F4E8
:104F0000BF2B11F460FF04C06F5F7F4F8F4F9F4F27
:104F10000895AA1BBB1B51E107C0AA1FBB1FA61700
:104F2000B70710F0A61BB70B881F991F5A95A9F752
:104F300080959095BC01CD01089597FB072E16F43E
:104F4000009407D077FD09D00E94892707FC05D07F
:104F50003EF4909581959F4F0895709561957F4F90
:104F60000895EE0FFF1F0590F491E02D0994F99933
:104F7000FECF92BD81BDF89A992780B50895A6E12C
:104F8000B0E044E050E00C94F127A8E1B0E042E04A
:104F900050E00C94F127262FF999FECF92BD81BDE8
:104FA000F89A019700B4021639F01FBA20BD0FB667
:104FB000F894FA9AF99A0FBE08950396272F0E9443
:104FC000CC270E94CB27252F0E94CC27242F0C947E
:104FD000CC270196272F0E94CC270C94CB27DC01ED
:104FE000CB01FC01F999FECF06C0F2BDE1BDF89AF4
:104FF000319600B40D9241505040B8F70895F8949E
:10500000FFCFEA03F203FA0302040A0412041A04AB
:1050100022042A0432047104710439044004470450
:105020004E0455045C0463046A04300535053A05F2
:105030003F05440549054E05A605CB0553055F050B
:10504000630567056B056F05730577057B057F05B0
:10505000830587058B058F05930597059B059F05A0
:10506000E610E6103E113E1182119E111611161126
:10507000A911161171127112DC1216111611E51216
:105080001B254025242640252426702591252426ED
:04509000E625F225FA
:10509400FFBC012808140A321E761F0620E31FAC49
:1050A4001F791F0191909466F4F5F6F7404D363957
:1050B400EE06A1066B063206C505DE05F7051006E9
:00000001FF
